{
  "_format": "hh-sol-artifact-1",
  "contractName": "Airdrop",
  "sourceName": "contracts/Airdrop.sol",
  "abi": [
    {
      "inputs": [
        {
          "internalType": "address",
          "name": "_token",
          "type": "address"
        },
        {
          "internalType": "uint256",
          "name": "_startTime",
          "type": "uint256"
        }
      ],
      "stateMutability": "nonpayable",
      "type": "constructor"
    },
    {
      "inputs": [
        {
          "internalType": "uint256",
          "name": "startTime",
          "type": "uint256"
        },
        {
          "internalType": "uint256",
          "name": "currentTime",
          "type": "uint256"
        }
      ],
      "name": "AirdropNotStarted",
      "type": "error"
    },
    {
      "inputs": [
        {
          "internalType": "address",
          "name": "owner",
          "type": "address"
        }
      ],
      "name": "OwnableInvalidOwner",
      "type": "error"
    },
    {
      "inputs": [
        {
          "internalType": "address",
          "name": "account",
          "type": "address"
        }
      ],
      "name": "OwnableUnauthorizedAccount",
      "type": "error"
    },
    {
      "anonymous": false,
      "inputs": [
        {
          "indexed": true,
          "internalType": "address",
          "name": "previousOwner",
          "type": "address"
        },
        {
          "indexed": true,
          "internalType": "address",
          "name": "newOwner",
          "type": "address"
        }
      ],
      "name": "OwnershipTransferred",
      "type": "event"
    },
    {
      "inputs": [],
      "name": "airdropToken",
      "outputs": [
        {
          "internalType": "contract ERC20",
          "name": "",
          "type": "address"
        }
      ],
      "stateMutability": "view",
      "type": "function"
    },
    {
      "inputs": [
        {
          "internalType": "address[]",
          "name": "beneficiaries",
          "type": "address[]"
        },
        {
          "internalType": "uint256[]",
          "name": "amounts",
          "type": "uint256[]"
        }
      ],
      "name": "batchSetAllowance",
      "outputs": [],
      "stateMutability": "nonpayable",
      "type": "function"
    },
    {
      "inputs": [],
      "name": "claim",
      "outputs": [],
      "stateMutability": "nonpayable",
      "type": "function"
    },
    {
      "inputs": [],
      "name": "claimed",
      "outputs": [
        {
          "internalType": "uint256",
          "name": "",
          "type": "uint256"
        }
      ],
      "stateMutability": "view",
      "type": "function"
    },
    {
      "inputs": [],
      "name": "getAirdropStatus",
      "outputs": [
        {
          "internalType": "enum Airdrop.AirdropStatus",
          "name": "",
          "type": "uint8"
        }
      ],
      "stateMutability": "view",
      "type": "function"
    },
    {
      "inputs": [
        {
          "internalType": "address",
          "name": "target",
          "type": "address"
        }
      ],
      "name": "getClaimableAmount",
      "outputs": [
        {
          "internalType": "uint256",
          "name": "",
          "type": "uint256"
        }
      ],
      "stateMutability": "view",
      "type": "function"
    },
    {
      "inputs": [
        {
          "internalType": "address",
          "name": "user",
          "type": "address"
        }
      ],
      "name": "getIsClaimableAndAmount",
      "outputs": [
        {
          "internalType": "bool",
          "name": "",
          "type": "bool"
        },
        {
          "internalType": "uint256",
          "name": "",
          "type": "uint256"
        }
      ],
      "stateMutability": "view",
      "type": "function"
    },
    {
      "inputs": [],
      "name": "getOverview",
      "outputs": [
        {
          "internalType": "enum Airdrop.AirdropStatus",
          "name": "",
          "type": "uint8"
        },
        {
          "internalType": "address",
          "name": "",
          "type": "address"
        },
        {
          "internalType": "uint256",
          "name": "",
          "type": "uint256"
        },
        {
          "internalType": "uint256",
          "name": "",
          "type": "uint256"
        }
      ],
      "stateMutability": "view",
      "type": "function"
    },
    {
      "inputs": [],
      "name": "owner",
      "outputs": [
        {
          "internalType": "address",
          "name": "",
          "type": "address"
        }
      ],
      "stateMutability": "view",
      "type": "function"
    },
    {
      "inputs": [],
      "name": "renounceOwnership",
      "outputs": [],
      "stateMutability": "nonpayable",
      "type": "function"
    },
    {
      "inputs": [
        {
          "internalType": "address",
          "name": "beneficiary",
          "type": "address"
        },
        {
          "internalType": "uint256",
          "name": "amount",
          "type": "uint256"
        }
      ],
      "name": "setAllowance",
      "outputs": [],
      "stateMutability": "nonpayable",
      "type": "function"
    },
    {
      "inputs": [],
      "name": "startTime",
      "outputs": [
        {
          "internalType": "uint256",
          "name": "",
          "type": "uint256"
        }
      ],
      "stateMutability": "view",
      "type": "function"
    },
    {
      "inputs": [
        {
          "internalType": "address",
          "name": "newOwner",
          "type": "address"
        }
      ],
      "name": "transferOwnership",
      "outputs": [],
      "stateMutability": "nonpayable",
      "type": "function"
    }
  ],
  "bytecode": "0x60806040523480156200001157600080fd5b506040516200136538038062001365833981810160405281019062000037919062000278565b33600073ffffffffffffffffffffffffffffffffffffffff168173ffffffffffffffffffffffffffffffffffffffff1603620000ad5760006040517f1e4fbdf7000000000000000000000000000000000000000000000000000000008152600401620000a49190620002d0565b60405180910390fd5b620000be816200010f60201b60201c565b5081600160006101000a81548173ffffffffffffffffffffffffffffffffffffffff021916908373ffffffffffffffffffffffffffffffffffffffff160217905550806002819055505050620002ed565b60008060009054906101000a900473ffffffffffffffffffffffffffffffffffffffff169050816000806101000a81548173ffffffffffffffffffffffffffffffffffffffff021916908373ffffffffffffffffffffffffffffffffffffffff1602179055508173ffffffffffffffffffffffffffffffffffffffff168173ffffffffffffffffffffffffffffffffffffffff167f8be0079c531659141344cd1fd0a4f28419497f9722a3daafe3b4186f6b6457e060405160405180910390a35050565b600080fd5b600073ffffffffffffffffffffffffffffffffffffffff82169050919050565b60006200020582620001d8565b9050919050565b6200021781620001f8565b81146200022357600080fd5b50565b60008151905062000237816200020c565b92915050565b6000819050919050565b62000252816200023d565b81146200025e57600080fd5b50565b600081519050620002728162000247565b92915050565b60008060408385031215620002925762000291620001d3565b5b6000620002a28582860162000226565b9250506020620002b58582860162000261565b9150509250929050565b620002ca81620001f8565b82525050565b6000602082019050620002e76000830184620002bf565b92915050565b61106880620002fd6000396000f3fe608060405234801561001057600080fd5b50600436106100cf5760003560e01c80638da5cb5b1161008c578063d97f7bd111610066578063d97f7bd1146101ce578063e12f3a61146101ea578063e834a8341461021a578063f2fde38b14610238576100cf565b80638da5cb5b14610161578063c2ff9e891461017f578063c9dd3d6d146101b0576100cf565b806320443e8d146100d4578063310ec4a7146100f55780634d06068a146101115780634e71d92d1461012f578063715018a61461013957806378e9792514610143575b600080fd5b6100dc610254565b6040516100ec9493929190610a45565b60405180910390f35b61010f600480360381019061010a9190610aec565b610332565b005b610119610382565b6040516101269190610b8b565b60405180910390f35b6101376103a8565b005b61014161057c565b005b61014b610590565b6040516101589190610ba6565b60405180910390f35b610169610596565b6040516101769190610bc1565b60405180910390f35b61019960048036038101906101949190610bdc565b6105bf565b6040516101a7929190610c24565b60405180910390f35b6101b8610639565b6040516101c59190610c4d565b60405180910390f35b6101e860048036038101906101e39190610d23565b610656565b005b61020460048036038101906101ff9190610bdc565b61074c565b6040516102119190610ba6565b60405180910390f35b610222610795565b60405161022f9190610ba6565b60405180910390f35b610252600480360381019061024d9190610bdc565b61079b565b005b600080600080610262610639565b600160009054906101000a900473ffffffffffffffffffffffffffffffffffffffff16600254600160009054906101000a900473ffffffffffffffffffffffffffffffffffffffff1673ffffffffffffffffffffffffffffffffffffffff166370a08231306040518263ffffffff1660e01b81526004016102e39190610bc1565b602060405180830381865afa158015610300573d6000803e3d6000fd5b505050506040513d601f19601f820116820180604052508101906103249190610db9565b935093509350935090919293565b61033a610821565b80600460008473ffffffffffffffffffffffffffffffffffffffff1673ffffffffffffffffffffffffffffffffffffffff168152602001908152602001600020819055505050565b600160009054906101000a900473ffffffffffffffffffffffffffffffffffffffff1681565b6002544210156103f357600254426040517fde871b5e0000000000000000000000000000000000000000000000000000000081526004016103ea929190610de6565b60405180910390fd5b6000600460003373ffffffffffffffffffffffffffffffffffffffff1673ffffffffffffffffffffffffffffffffffffffff1681526020019081526020016000205490506000811161047a576040517f08c379a000000000000000000000000000000000000000000000000000000000815260040161047190610e6c565b60405180910390fd5b6000600460003373ffffffffffffffffffffffffffffffffffffffff1673ffffffffffffffffffffffffffffffffffffffff1681526020019081526020016000208190555080600360008282546104d19190610ebb565b92505081905550600160009054906101000a900473ffffffffffffffffffffffffffffffffffffffff1673ffffffffffffffffffffffffffffffffffffffff1663a9059cbb33836040518363ffffffff1660e01b8152600401610535929190610eef565b6020604051808303816000875af1158015610554573d6000803e3d6000fd5b505050506040513d601f19601f820116820180604052508101906105789190610f44565b5050565b610584610821565b61058e60006108a8565b565b60025481565b60008060009054906101000a900473ffffffffffffffffffffffffffffffffffffffff16905090565b6000806001808111156105d5576105d4610974565b5b6105dd610639565b60018111156105ef576105ee610974565b5b14600460008573ffffffffffffffffffffffffffffffffffffffff1673ffffffffffffffffffffffffffffffffffffffff1681526020019081526020016000205491509150915091565b600060025442101561064e5760009050610653565b600190505b90565b61065e610821565b8181905084849050146106a6576040517f08c379a000000000000000000000000000000000000000000000000000000000815260040161069d90610fe3565b60405180910390fd5b60005b84849050811015610745578282828181106106c7576106c6611003565b5b90506020020135600460008787858181106106e5576106e4611003565b5b90506020020160208101906106fa9190610bdc565b73ffffffffffffffffffffffffffffffffffffffff1673ffffffffffffffffffffffffffffffffffffffff1681526020019081526020016000208190555080806001019150506106a9565b5050505050565b6000600460008373ffffffffffffffffffffffffffffffffffffffff1673ffffffffffffffffffffffffffffffffffffffff168152602001908152602001600020549050919050565b60035481565b6107a3610821565b600073ffffffffffffffffffffffffffffffffffffffff168173ffffffffffffffffffffffffffffffffffffffff16036108155760006040517f1e4fbdf700000000000000000000000000000000000000000000000000000000815260040161080c9190610bc1565b60405180910390fd5b61081e816108a8565b50565b61082961096c565b73ffffffffffffffffffffffffffffffffffffffff16610847610596565b73ffffffffffffffffffffffffffffffffffffffff16146108a65761086a61096c565b6040517f118cdaa700000000000000000000000000000000000000000000000000000000815260040161089d9190610bc1565b60405180910390fd5b565b60008060009054906101000a900473ffffffffffffffffffffffffffffffffffffffff169050816000806101000a81548173ffffffffffffffffffffffffffffffffffffffff021916908373ffffffffffffffffffffffffffffffffffffffff1602179055508173ffffffffffffffffffffffffffffffffffffffff168173ffffffffffffffffffffffffffffffffffffffff167f8be0079c531659141344cd1fd0a4f28419497f9722a3daafe3b4186f6b6457e060405160405180910390a35050565b600033905090565b7f4e487b7100000000000000000000000000000000000000000000000000000000600052602160045260246000fd5b600281106109b4576109b3610974565b5b50565b60008190506109c5826109a3565b919050565b60006109d5826109b7565b9050919050565b6109e5816109ca565b82525050565b600073ffffffffffffffffffffffffffffffffffffffff82169050919050565b6000610a16826109eb565b9050919050565b610a2681610a0b565b82525050565b6000819050919050565b610a3f81610a2c565b82525050565b6000608082019050610a5a60008301876109dc565b610a676020830186610a1d565b610a746040830185610a36565b610a816060830184610a36565b95945050505050565b600080fd5b600080fd5b610a9d81610a0b565b8114610aa857600080fd5b50565b600081359050610aba81610a94565b92915050565b610ac981610a2c565b8114610ad457600080fd5b50565b600081359050610ae681610ac0565b92915050565b60008060408385031215610b0357610b02610a8a565b5b6000610b1185828601610aab565b9250506020610b2285828601610ad7565b9150509250929050565b6000819050919050565b6000610b51610b4c610b47846109eb565b610b2c565b6109eb565b9050919050565b6000610b6382610b36565b9050919050565b6000610b7582610b58565b9050919050565b610b8581610b6a565b82525050565b6000602082019050610ba06000830184610b7c565b92915050565b6000602082019050610bbb6000830184610a36565b92915050565b6000602082019050610bd66000830184610a1d565b92915050565b600060208284031215610bf257610bf1610a8a565b5b6000610c0084828501610aab565b91505092915050565b60008115159050919050565b610c1e81610c09565b82525050565b6000604082019050610c396000830185610c15565b610c466020830184610a36565b9392505050565b6000602082019050610c6260008301846109dc565b92915050565b600080fd5b600080fd5b600080fd5b60008083601f840112610c8d57610c8c610c68565b5b8235905067ffffffffffffffff811115610caa57610ca9610c6d565b5b602083019150836020820283011115610cc657610cc5610c72565b5b9250929050565b60008083601f840112610ce357610ce2610c68565b5b8235905067ffffffffffffffff811115610d0057610cff610c6d565b5b602083019150836020820283011115610d1c57610d1b610c72565b5b9250929050565b60008060008060408587031215610d3d57610d3c610a8a565b5b600085013567ffffffffffffffff811115610d5b57610d5a610a8f565b5b610d6787828801610c77565b9450945050602085013567ffffffffffffffff811115610d8a57610d89610a8f565b5b610d9687828801610ccd565b925092505092959194509250565b600081519050610db381610ac0565b92915050565b600060208284031215610dcf57610dce610a8a565b5b6000610ddd84828501610da4565b91505092915050565b6000604082019050610dfb6000830185610a36565b610e086020830184610a36565b9392505050565b600082825260208201905092915050565b7f4e6f7468696e6720746f20636c61696d00000000000000000000000000000000600082015250565b6000610e56601083610e0f565b9150610e6182610e20565b602082019050919050565b60006020820190508181036000830152610e8581610e49565b9050919050565b7f4e487b7100000000000000000000000000000000000000000000000000000000600052601160045260246000fd5b6000610ec682610a2c565b9150610ed183610a2c565b9250828201905080821115610ee957610ee8610e8c565b5b92915050565b6000604082019050610f046000830185610a1d565b610f116020830184610a36565b9392505050565b610f2181610c09565b8114610f2c57600080fd5b50565b600081519050610f3e81610f18565b92915050565b600060208284031215610f5a57610f59610a8a565b5b6000610f6884828501610f2f565b91505092915050565b7f4d69736d61746368206c656e6774682062656e6566696369617269657320616e60008201527f6420616d6f756e74730000000000000000000000000000000000000000000000602082015250565b6000610fcd602983610e0f565b9150610fd882610f71565b604082019050919050565b60006020820190508181036000830152610ffc81610fc0565b9050919050565b7f4e487b7100000000000000000000000000000000000000000000000000000000600052603260045260246000fdfea26469706673582212207fd36b603ef5e3548a16ce00f9b40706c44973a9b6db01b20587fd545db09be864736f6c63430008160033",
  "linkReferences": {},
  "deployedLinkReferences": {}
}