{
  "_format": "hh-sol-artifact-1",
  "contractName": "ERC20_MintPausable",
  "sourceName": "contracts/ERC20_Mint_Pausable.sol",
  "abi": [
    {
      "inputs": [
        {
          "internalType": "address",
          "name": "initialOwner",
          "type": "address"
        },
        {
          "internalType": "string",
          "name": "_tokenName",
          "type": "string"
        },
        {
          "internalType": "string",
          "name": "_tokenTicker",
          "type": "string"
        },
        {
          "internalType": "uint256",
          "name": "_supply",
          "type": "uint256"
        }
      ],
      "stateMutability": "nonpayable",
      "type": "constructor"
    },
    {
      "inputs": [
        {
          "internalType": "address",
          "name": "spender",
          "type": "address"
        },
        {
          "internalType": "uint256",
          "name": "value",
          "type": "uint256"
        }
      ],
      "name": "ERC1363ApproveFailed",
      "type": "error"
    },
    {
      "inputs": [
        {
          "internalType": "address",
          "name": "receiver",
          "type": "address"
        }
      ],
      "name": "ERC1363InvalidReceiver",
      "type": "error"
    },
    {
      "inputs": [
        {
          "internalType": "address",
          "name": "spender",
          "type": "address"
        }
      ],
      "name": "ERC1363InvalidSpender",
      "type": "error"
    },
    {
      "inputs": [
        {
          "internalType": "address",
          "name": "to",
          "type": "address"
        },
        {
          "internalType": "uint256",
          "name": "value",
          "type": "uint256"
        }
      ],
      "name": "ERC1363TransferFailed",
      "type": "error"
    },
    {
      "inputs": [
        {
          "internalType": "address",
          "name": "from",
          "type": "address"
        },
        {
          "internalType": "address",
          "name": "to",
          "type": "address"
        },
        {
          "internalType": "uint256",
          "name": "value",
          "type": "uint256"
        }
      ],
      "name": "ERC1363TransferFromFailed",
      "type": "error"
    },
    {
      "inputs": [
        {
          "internalType": "address",
          "name": "spender",
          "type": "address"
        },
        {
          "internalType": "uint256",
          "name": "allowance",
          "type": "uint256"
        },
        {
          "internalType": "uint256",
          "name": "needed",
          "type": "uint256"
        }
      ],
      "name": "ERC20InsufficientAllowance",
      "type": "error"
    },
    {
      "inputs": [
        {
          "internalType": "address",
          "name": "sender",
          "type": "address"
        },
        {
          "internalType": "uint256",
          "name": "balance",
          "type": "uint256"
        },
        {
          "internalType": "uint256",
          "name": "needed",
          "type": "uint256"
        }
      ],
      "name": "ERC20InsufficientBalance",
      "type": "error"
    },
    {
      "inputs": [
        {
          "internalType": "address",
          "name": "approver",
          "type": "address"
        }
      ],
      "name": "ERC20InvalidApprover",
      "type": "error"
    },
    {
      "inputs": [
        {
          "internalType": "address",
          "name": "receiver",
          "type": "address"
        }
      ],
      "name": "ERC20InvalidReceiver",
      "type": "error"
    },
    {
      "inputs": [
        {
          "internalType": "address",
          "name": "sender",
          "type": "address"
        }
      ],
      "name": "ERC20InvalidSender",
      "type": "error"
    },
    {
      "inputs": [
        {
          "internalType": "address",
          "name": "spender",
          "type": "address"
        }
      ],
      "name": "ERC20InvalidSpender",
      "type": "error"
    },
    {
      "inputs": [],
      "name": "EnforcedPause",
      "type": "error"
    },
    {
      "inputs": [],
      "name": "ExpectedPause",
      "type": "error"
    },
    {
      "inputs": [
        {
          "internalType": "address",
          "name": "owner",
          "type": "address"
        }
      ],
      "name": "OwnableInvalidOwner",
      "type": "error"
    },
    {
      "inputs": [
        {
          "internalType": "address",
          "name": "account",
          "type": "address"
        }
      ],
      "name": "OwnableUnauthorizedAccount",
      "type": "error"
    },
    {
      "anonymous": false,
      "inputs": [
        {
          "indexed": true,
          "internalType": "address",
          "name": "owner",
          "type": "address"
        },
        {
          "indexed": true,
          "internalType": "address",
          "name": "spender",
          "type": "address"
        },
        {
          "indexed": false,
          "internalType": "uint256",
          "name": "value",
          "type": "uint256"
        }
      ],
      "name": "Approval",
      "type": "event"
    },
    {
      "anonymous": false,
      "inputs": [
        {
          "indexed": true,
          "internalType": "address",
          "name": "previousOwner",
          "type": "address"
        },
        {
          "indexed": true,
          "internalType": "address",
          "name": "newOwner",
          "type": "address"
        }
      ],
      "name": "OwnershipTransferred",
      "type": "event"
    },
    {
      "anonymous": false,
      "inputs": [
        {
          "indexed": false,
          "internalType": "address",
          "name": "account",
          "type": "address"
        }
      ],
      "name": "Paused",
      "type": "event"
    },
    {
      "anonymous": false,
      "inputs": [
        {
          "indexed": true,
          "internalType": "address",
          "name": "from",
          "type": "address"
        },
        {
          "indexed": true,
          "internalType": "address",
          "name": "to",
          "type": "address"
        },
        {
          "indexed": false,
          "internalType": "uint256",
          "name": "value",
          "type": "uint256"
        }
      ],
      "name": "Transfer",
      "type": "event"
    },
    {
      "anonymous": false,
      "inputs": [
        {
          "indexed": false,
          "internalType": "address",
          "name": "account",
          "type": "address"
        }
      ],
      "name": "Unpaused",
      "type": "event"
    },
    {
      "inputs": [
        {
          "internalType": "address",
          "name": "owner",
          "type": "address"
        },
        {
          "internalType": "address",
          "name": "spender",
          "type": "address"
        }
      ],
      "name": "allowance",
      "outputs": [
        {
          "internalType": "uint256",
          "name": "",
          "type": "uint256"
        }
      ],
      "stateMutability": "view",
      "type": "function"
    },
    {
      "inputs": [
        {
          "internalType": "address",
          "name": "spender",
          "type": "address"
        },
        {
          "internalType": "uint256",
          "name": "value",
          "type": "uint256"
        }
      ],
      "name": "approve",
      "outputs": [
        {
          "internalType": "bool",
          "name": "",
          "type": "bool"
        }
      ],
      "stateMutability": "nonpayable",
      "type": "function"
    },
    {
      "inputs": [
        {
          "internalType": "address",
          "name": "spender",
          "type": "address"
        },
        {
          "internalType": "uint256",
          "name": "value",
          "type": "uint256"
        }
      ],
      "name": "approveAndCall",
      "outputs": [
        {
          "internalType": "bool",
          "name": "",
          "type": "bool"
        }
      ],
      "stateMutability": "nonpayable",
      "type": "function"
    },
    {
      "inputs": [
        {
          "internalType": "address",
          "name": "spender",
          "type": "address"
        },
        {
          "internalType": "uint256",
          "name": "value",
          "type": "uint256"
        },
        {
          "internalType": "bytes",
          "name": "data",
          "type": "bytes"
        }
      ],
      "name": "approveAndCall",
      "outputs": [
        {
          "internalType": "bool",
          "name": "",
          "type": "bool"
        }
      ],
      "stateMutability": "nonpayable",
      "type": "function"
    },
    {
      "inputs": [
        {
          "internalType": "address",
          "name": "account",
          "type": "address"
        }
      ],
      "name": "balanceOf",
      "outputs": [
        {
          "internalType": "uint256",
          "name": "",
          "type": "uint256"
        }
      ],
      "stateMutability": "view",
      "type": "function"
    },
    {
      "inputs": [],
      "name": "decimals",
      "outputs": [
        {
          "internalType": "uint8",
          "name": "",
          "type": "uint8"
        }
      ],
      "stateMutability": "view",
      "type": "function"
    },
    {
      "inputs": [
        {
          "internalType": "address",
          "name": "to",
          "type": "address"
        },
        {
          "internalType": "uint256",
          "name": "amount",
          "type": "uint256"
        }
      ],
      "name": "mint",
      "outputs": [],
      "stateMutability": "nonpayable",
      "type": "function"
    },
    {
      "inputs": [],
      "name": "name",
      "outputs": [
        {
          "internalType": "string",
          "name": "",
          "type": "string"
        }
      ],
      "stateMutability": "view",
      "type": "function"
    },
    {
      "inputs": [],
      "name": "owner",
      "outputs": [
        {
          "internalType": "address",
          "name": "",
          "type": "address"
        }
      ],
      "stateMutability": "view",
      "type": "function"
    },
    {
      "inputs": [],
      "name": "pause",
      "outputs": [],
      "stateMutability": "nonpayable",
      "type": "function"
    },
    {
      "inputs": [],
      "name": "paused",
      "outputs": [
        {
          "internalType": "bool",
          "name": "",
          "type": "bool"
        }
      ],
      "stateMutability": "view",
      "type": "function"
    },
    {
      "inputs": [],
      "name": "renounceOwnership",
      "outputs": [],
      "stateMutability": "nonpayable",
      "type": "function"
    },
    {
      "inputs": [
        {
          "internalType": "bytes4",
          "name": "interfaceId",
          "type": "bytes4"
        }
      ],
      "name": "supportsInterface",
      "outputs": [
        {
          "internalType": "bool",
          "name": "",
          "type": "bool"
        }
      ],
      "stateMutability": "view",
      "type": "function"
    },
    {
      "inputs": [],
      "name": "symbol",
      "outputs": [
        {
          "internalType": "string",
          "name": "",
          "type": "string"
        }
      ],
      "stateMutability": "view",
      "type": "function"
    },
    {
      "inputs": [],
      "name": "totalSupply",
      "outputs": [
        {
          "internalType": "uint256",
          "name": "",
          "type": "uint256"
        }
      ],
      "stateMutability": "view",
      "type": "function"
    },
    {
      "inputs": [
        {
          "internalType": "address",
          "name": "to",
          "type": "address"
        },
        {
          "internalType": "uint256",
          "name": "value",
          "type": "uint256"
        }
      ],
      "name": "transfer",
      "outputs": [
        {
          "internalType": "bool",
          "name": "",
          "type": "bool"
        }
      ],
      "stateMutability": "nonpayable",
      "type": "function"
    },
    {
      "inputs": [
        {
          "internalType": "address",
          "name": "to",
          "type": "address"
        },
        {
          "internalType": "uint256",
          "name": "value",
          "type": "uint256"
        }
      ],
      "name": "transferAndCall",
      "outputs": [
        {
          "internalType": "bool",
          "name": "",
          "type": "bool"
        }
      ],
      "stateMutability": "nonpayable",
      "type": "function"
    },
    {
      "inputs": [
        {
          "internalType": "address",
          "name": "to",
          "type": "address"
        },
        {
          "internalType": "uint256",
          "name": "value",
          "type": "uint256"
        },
        {
          "internalType": "bytes",
          "name": "data",
          "type": "bytes"
        }
      ],
      "name": "transferAndCall",
      "outputs": [
        {
          "internalType": "bool",
          "name": "",
          "type": "bool"
        }
      ],
      "stateMutability": "nonpayable",
      "type": "function"
    },
    {
      "inputs": [
        {
          "internalType": "address",
          "name": "from",
          "type": "address"
        },
        {
          "internalType": "address",
          "name": "to",
          "type": "address"
        },
        {
          "internalType": "uint256",
          "name": "value",
          "type": "uint256"
        }
      ],
      "name": "transferFrom",
      "outputs": [
        {
          "internalType": "bool",
          "name": "",
          "type": "bool"
        }
      ],
      "stateMutability": "nonpayable",
      "type": "function"
    },
    {
      "inputs": [
        {
          "internalType": "address",
          "name": "from",
          "type": "address"
        },
        {
          "internalType": "address",
          "name": "to",
          "type": "address"
        },
        {
          "internalType": "uint256",
          "name": "value",
          "type": "uint256"
        },
        {
          "internalType": "bytes",
          "name": "data",
          "type": "bytes"
        }
      ],
      "name": "transferFromAndCall",
      "outputs": [
        {
          "internalType": "bool",
          "name": "",
          "type": "bool"
        }
      ],
      "stateMutability": "nonpayable",
      "type": "function"
    },
    {
      "inputs": [
        {
          "internalType": "address",
          "name": "from",
          "type": "address"
        },
        {
          "internalType": "address",
          "name": "to",
          "type": "address"
        },
        {
          "internalType": "uint256",
          "name": "value",
          "type": "uint256"
        }
      ],
      "name": "transferFromAndCall",
      "outputs": [
        {
          "internalType": "bool",
          "name": "",
          "type": "bool"
        }
      ],
      "stateMutability": "nonpayable",
      "type": "function"
    },
    {
      "inputs": [
        {
          "internalType": "address",
          "name": "newOwner",
          "type": "address"
        }
      ],
      "name": "transferOwnership",
      "outputs": [],
      "stateMutability": "nonpayable",
      "type": "function"
    },
    {
      "inputs": [],
      "name": "unpause",
      "outputs": [],
      "stateMutability": "nonpayable",
      "type": "function"
    }
  ],
  "bytecode": "0x60806040523480156200001157600080fd5b5060405162002e7f38038062002e7f8339818101604052810190620000379190620007a8565b83838381600390816200004b919062000a99565b5080600490816200005d919062000a99565b5050506000600560006101000a81548160ff021916908315150217905550600073ffffffffffffffffffffffffffffffffffffffff168173ffffffffffffffffffffffffffffffffffffffff1603620000f05760006040517f1e4fbdf7000000000000000000000000000000000000000000000000000000008152600401620000e7919062000b91565b60405180910390fd5b62000101816200014860201b60201c565b506200013e33620001176200020e60201b60201c565b600a62000125919062000d3e565b8362000132919062000d8f565b6200021760201b60201c565b5050505062000e80565b6000600560019054906101000a900473ffffffffffffffffffffffffffffffffffffffff16905081600560016101000a81548173ffffffffffffffffffffffffffffffffffffffff021916908373ffffffffffffffffffffffffffffffffffffffff1602179055508173ffffffffffffffffffffffffffffffffffffffff168173ffffffffffffffffffffffffffffffffffffffff167f8be0079c531659141344cd1fd0a4f28419497f9722a3daafe3b4186f6b6457e060405160405180910390a35050565b60006012905090565b600073ffffffffffffffffffffffffffffffffffffffff168273ffffffffffffffffffffffffffffffffffffffff16036200028c5760006040517fec442f0500000000000000000000000000000000000000000000000000000000815260040162000283919062000b91565b60405180910390fd5b620002a060008383620002a460201b60201c565b5050565b620002b7838383620002bc60201b60201c565b505050565b620002cc620002e460201b60201c565b620002df8383836200032e60201b60201c565b505050565b620002f46200055e60201b60201c565b156200032c576040517fd93c066500000000000000000000000000000000000000000000000000000000815260040160405180910390fd5b565b600073ffffffffffffffffffffffffffffffffffffffff168373ffffffffffffffffffffffffffffffffffffffff16036200038457806002600082825462000377919062000dda565b925050819055506200045a565b60008060008573ffffffffffffffffffffffffffffffffffffffff1673ffffffffffffffffffffffffffffffffffffffff1681526020019081526020016000205490508181101562000413578381836040517fe450d38c0000000000000000000000000000000000000000000000000000000081526004016200040a9392919062000e26565b60405180910390fd5b8181036000808673ffffffffffffffffffffffffffffffffffffffff1673ffffffffffffffffffffffffffffffffffffffff16815260200190815260200160002081905550505b600073ffffffffffffffffffffffffffffffffffffffff168273ffffffffffffffffffffffffffffffffffffffff1603620004a55780600260008282540392505081905550620004f2565b806000808473ffffffffffffffffffffffffffffffffffffffff1673ffffffffffffffffffffffffffffffffffffffff168152602001908152602001600020600082825401925050819055505b8173ffffffffffffffffffffffffffffffffffffffff168373ffffffffffffffffffffffffffffffffffffffff167fddf252ad1be2c89b69c2b068fc378daa952ba7f163c4a11628f55a4df523b3ef8360405162000551919062000e63565b60405180910390a3505050565b6000600560009054906101000a900460ff16905090565b6000604051905090565b600080fd5b600080fd5b600073ffffffffffffffffffffffffffffffffffffffff82169050919050565b6000620005b68262000589565b9050919050565b620005c881620005a9565b8114620005d457600080fd5b50565b600081519050620005e881620005bd565b92915050565b600080fd5b600080fd5b6000601f19601f8301169050919050565b7f4e487b7100000000000000000000000000000000000000000000000000000000600052604160045260246000fd5b6200064382620005f8565b810181811067ffffffffffffffff8211171562000665576200066462000609565b5b80604052505050565b60006200067a62000575565b905062000688828262000638565b919050565b600067ffffffffffffffff821115620006ab57620006aa62000609565b5b620006b682620005f8565b9050602081019050919050565b60005b83811015620006e3578082015181840152602081019050620006c6565b60008484015250505050565b60006200070662000700846200068d565b6200066e565b905082815260208101848484011115620007255762000724620005f3565b5b62000732848285620006c3565b509392505050565b600082601f830112620007525762000751620005ee565b5b815162000764848260208601620006ef565b91505092915050565b6000819050919050565b62000782816200076d565b81146200078e57600080fd5b50565b600081519050620007a28162000777565b92915050565b60008060008060808587031215620007c557620007c46200057f565b5b6000620007d587828801620005d7565b945050602085015167ffffffffffffffff811115620007f957620007f862000584565b5b62000807878288016200073a565b935050604085015167ffffffffffffffff8111156200082b576200082a62000584565b5b62000839878288016200073a565b92505060606200084c8782880162000791565b91505092959194509250565b600081519050919050565b7f4e487b7100000000000000000000000000000000000000000000000000000000600052602260045260246000fd5b60006002820490506001821680620008ab57607f821691505b602082108103620008c157620008c062000863565b5b50919050565b60008190508160005260206000209050919050565b60006020601f8301049050919050565b600082821b905092915050565b6000600883026200092b7fffffffffffffffffffffffffffffffffffffffffffffffffffffffffffffffff82620008ec565b620009378683620008ec565b95508019841693508086168417925050509392505050565b6000819050919050565b60006200097a620009746200096e846200076d565b6200094f565b6200076d565b9050919050565b6000819050919050565b620009968362000959565b620009ae620009a58262000981565b848454620008f9565b825550505050565b600090565b620009c5620009b6565b620009d28184846200098b565b505050565b5b81811015620009fa57620009ee600082620009bb565b600181019050620009d8565b5050565b601f82111562000a495762000a1381620008c7565b62000a1e84620008dc565b8101602085101562000a2e578190505b62000a4662000a3d85620008dc565b830182620009d7565b50505b505050565b600082821c905092915050565b600062000a6e6000198460080262000a4e565b1980831691505092915050565b600062000a89838362000a5b565b9150826002028217905092915050565b62000aa48262000858565b67ffffffffffffffff81111562000ac05762000abf62000609565b5b62000acc825462000892565b62000ad9828285620009fe565b600060209050601f83116001811462000b11576000841562000afc578287015190505b62000b08858262000a7b565b86555062000b78565b601f19841662000b2186620008c7565b60005b8281101562000b4b5784890151825560018201915060208501945060208101905062000b24565b8683101562000b6b578489015162000b67601f89168262000a5b565b8355505b6001600288020188555050505b505050505050565b62000b8b81620005a9565b82525050565b600060208201905062000ba8600083018462000b80565b92915050565b7f4e487b7100000000000000000000000000000000000000000000000000000000600052601160045260246000fd5b60008160011c9050919050565b6000808291508390505b600185111562000c3c5780860481111562000c145762000c1362000bae565b5b600185161562000c245780820291505b808102905062000c348562000bdd565b945062000bf4565b94509492505050565b60008262000c57576001905062000d2a565b8162000c67576000905062000d2a565b816001811462000c80576002811462000c8b5762000cc1565b600191505062000d2a565b60ff84111562000ca05762000c9f62000bae565b5b8360020a91508482111562000cba5762000cb962000bae565b5b5062000d2a565b5060208310610133831016604e8410600b841016171562000cfb5782820a90508381111562000cf55762000cf462000bae565b5b62000d2a565b62000d0a848484600162000bea565b9250905081840481111562000d245762000d2362000bae565b5b81810290505b9392505050565b600060ff82169050919050565b600062000d4b826200076d565b915062000d588362000d31565b925062000d877fffffffffffffffffffffffffffffffffffffffffffffffffffffffffffffffff848462000c45565b905092915050565b600062000d9c826200076d565b915062000da9836200076d565b925082820262000db9816200076d565b9150828204841483151762000dd35762000dd262000bae565b5b5092915050565b600062000de7826200076d565b915062000df4836200076d565b925082820190508082111562000e0f5762000e0e62000bae565b5b92915050565b62000e20816200076d565b82525050565b600060608201905062000e3d600083018662000b80565b62000e4c602083018562000e15565b62000e5b604083018462000e15565b949350505050565b600060208201905062000e7a600083018462000e15565b92915050565b611fef8062000e906000396000f3fe608060405234801561001057600080fd5b506004361061014d5760003560e01c80635c975abb116100c3578063a9059cbb1161007c578063a9059cbb14610390578063c1d34b89146103c0578063cae9ca51146103f0578063d8fbe99414610420578063dd62ed3e14610450578063f2fde38b146104805761014d565b80635c975abb146102f257806370a0823114610310578063715018a6146103405780638456cb591461034a5780638da5cb5b1461035457806395d89b41146103725761014d565b806323b872dd1161011557806323b872dd1461021e578063313ce5671461024e5780633177029f1461026c5780633f4ba83a1461029c5780634000aea0146102a657806340c10f19146102d65761014d565b806301ffc9a71461015257806306fdde0314610182578063095ea7b3146101a05780631296ee62146101d057806318160ddd14610200575b600080fd5b61016c600480360381019061016791906117e3565b61049c565b604051610179919061182b565b60405180910390f35b61018a610516565b60405161019791906118d6565b60405180910390f35b6101ba60048036038101906101b5919061198c565b6105a8565b6040516101c7919061182b565b60405180910390f35b6101ea60048036038101906101e5919061198c565b6105cb565b6040516101f7919061182b565b60405180910390f35b6102086105ef565b60405161021591906119db565b60405180910390f35b610238600480360381019061023391906119f6565b6105f9565b604051610245919061182b565b60405180910390f35b610256610628565b6040516102639190611a65565b60405180910390f35b6102866004803603810190610281919061198c565b610631565b604051610293919061182b565b60405180910390f35b6102a4610655565b005b6102c060048036038101906102bb9190611bb5565b610667565b6040516102cd919061182b565b60405180910390f35b6102f060048036038101906102eb919061198c565b6106d4565b005b6102fa6106ea565b604051610307919061182b565b60405180910390f35b61032a60048036038101906103259190611c24565b610701565b60405161033791906119db565b60405180910390f35b610348610749565b005b61035261075d565b005b61035c61076f565b6040516103699190611c60565b60405180910390f35b61037a610799565b60405161038791906118d6565b60405180910390f35b6103aa60048036038101906103a5919061198c565b61082b565b6040516103b7919061182b565b60405180910390f35b6103da60048036038101906103d59190611c7b565b61084e565b6040516103e7919061182b565b60405180910390f35b61040a60048036038101906104059190611bb5565b6108b8565b604051610417919061182b565b60405180910390f35b61043a600480360381019061043591906119f6565b61091d565b604051610447919061182b565b60405180910390f35b61046a60048036038101906104659190611cfe565b610943565b60405161047791906119db565b60405180910390f35b61049a60048036038101906104959190611c24565b6109ca565b005b60007fb0202a11000000000000000000000000000000000000000000000000000000007bffffffffffffffffffffffffffffffffffffffffffffffffffffffff1916827bffffffffffffffffffffffffffffffffffffffffffffffffffffffff1916148061050f575061050e82610a50565b5b9050919050565b60606003805461052590611d6d565b80601f016020809104026020016040519081016040528092919081815260200182805461055190611d6d565b801561059e5780601f106105735761010080835404028352916020019161059e565b820191906000526020600020905b81548152906001019060200180831161058157829003601f168201915b5050505050905090565b6000806105b3610aba565b90506105c0818585610ac2565b600191505092915050565b60006105e7838360405180602001604052806000815250610667565b905092915050565b6000600254905090565b600080610604610aba565b9050610611858285610ad4565b61061c858585610b68565b60019150509392505050565b60006012905090565b600061064d8383604051806020016040528060008152506108b8565b905092915050565b61065d610c5c565b610665610ce3565b565b6000610673848461082b565b6106b65783836040517f231b03ae0000000000000000000000000000000000000000000000000000000081526004016106ad929190611d9e565b60405180910390fd5b6106c96106c1610aba565b858585610d46565b600190509392505050565b6106dc610c5c565b6106e68282610f38565b5050565b6000600560009054906101000a900460ff16905090565b60008060008373ffffffffffffffffffffffffffffffffffffffff1673ffffffffffffffffffffffffffffffffffffffff168152602001908152602001600020549050919050565b610751610c5c565b61075b6000610fba565b565b610765610c5c565b61076d611080565b565b6000600560019054906101000a900473ffffffffffffffffffffffffffffffffffffffff16905090565b6060600480546107a890611d6d565b80601f01602080910402602001604051908101604052809291908181526020018280546107d490611d6d565b80156108215780601f106107f657610100808354040283529160200191610821565b820191906000526020600020905b81548152906001019060200180831161080457829003601f168201915b5050505050905090565b600080610836610aba565b9050610843818585610b68565b600191505092915050565b600061085b8585856105f9565b6108a0578484846040517fb56855e600000000000000000000000000000000000000000000000000000000815260040161089793929190611dc7565b60405180910390fd5b6108ac85858585610d46565b60019050949350505050565b60006108c484846105a8565b6109075783836040517f50e555c40000000000000000000000000000000000000000000000000000000081526004016108fe929190611d9e565b60405180910390fd5b6109128484846110e3565b600190509392505050565b600061093a8484846040518060200160405280600081525061084e565b90509392505050565b6000600160008473ffffffffffffffffffffffffffffffffffffffff1673ffffffffffffffffffffffffffffffffffffffff16815260200190815260200160002060008373ffffffffffffffffffffffffffffffffffffffff1673ffffffffffffffffffffffffffffffffffffffff16815260200190815260200160002054905092915050565b6109d2610c5c565b600073ffffffffffffffffffffffffffffffffffffffff168173ffffffffffffffffffffffffffffffffffffffff1603610a445760006040517f1e4fbdf7000000000000000000000000000000000000000000000000000000008152600401610a3b9190611c60565b60405180910390fd5b610a4d81610fba565b50565b60007f01ffc9a7000000000000000000000000000000000000000000000000000000007bffffffffffffffffffffffffffffffffffffffffffffffffffffffff1916827bffffffffffffffffffffffffffffffffffffffffffffffffffffffff1916149050919050565b600033905090565b610acf83838360016112d2565b505050565b6000610ae08484610943565b90507fffffffffffffffffffffffffffffffffffffffffffffffffffffffffffffffff8114610b625781811015610b52578281836040517ffb8f41b2000000000000000000000000000000000000000000000000000000008152600401610b4993929190611dfe565b60405180910390fd5b610b61848484840360006112d2565b5b50505050565b600073ffffffffffffffffffffffffffffffffffffffff168373ffffffffffffffffffffffffffffffffffffffff1603610bda5760006040517f96c6fd1e000000000000000000000000000000000000000000000000000000008152600401610bd19190611c60565b60405180910390fd5b600073ffffffffffffffffffffffffffffffffffffffff168273ffffffffffffffffffffffffffffffffffffffff1603610c4c5760006040517fec442f05000000000000000000000000000000000000000000000000000000008152600401610c439190611c60565b60405180910390fd5b610c578383836114a9565b505050565b610c64610aba565b73ffffffffffffffffffffffffffffffffffffffff16610c8261076f565b73ffffffffffffffffffffffffffffffffffffffff1614610ce157610ca5610aba565b6040517f118cdaa7000000000000000000000000000000000000000000000000000000008152600401610cd89190611c60565b60405180910390fd5b565b610ceb6114b9565b6000600560006101000a81548160ff0219169083151502179055507f5db9ee0a495bf2e6ff9c91a7834c1ba4fdd244a5e8aa4e537bd38aeae4b073aa610d2f610aba565b604051610d3c9190611c60565b60405180910390a1565b60008373ffffffffffffffffffffffffffffffffffffffff163b03610da257826040517f8a96cd9c000000000000000000000000000000000000000000000000000000008152600401610d999190611c60565b60405180910390fd5b8273ffffffffffffffffffffffffffffffffffffffff166388a7ca5c610dc6610aba565b8685856040518563ffffffff1660e01b8152600401610de89493929190611e8a565b6020604051808303816000875af1925050508015610e2457506040513d601f19601f82011682018060405250810190610e219190611eeb565b60015b610ea8573d8060008114610e54576040519150601f19603f3d011682016040523d82523d6000602084013e610e59565b606091505b506000815103610ea057836040517f8a96cd9c000000000000000000000000000000000000000000000000000000008152600401610e979190611c60565b60405180910390fd5b805181602001fd5b6388a7ca5c60e01b7bffffffffffffffffffffffffffffffffffffffffffffffffffffffff1916817bffffffffffffffffffffffffffffffffffffffffffffffffffffffff191614610f3157836040517f8a96cd9c000000000000000000000000000000000000000000000000000000008152600401610f289190611c60565b60405180910390fd5b5050505050565b600073ffffffffffffffffffffffffffffffffffffffff168273ffffffffffffffffffffffffffffffffffffffff1603610faa5760006040517fec442f05000000000000000000000000000000000000000000000000000000008152600401610fa19190611c60565b60405180910390fd5b610fb6600083836114a9565b5050565b6000600560019054906101000a900473ffffffffffffffffffffffffffffffffffffffff16905081600560016101000a81548173ffffffffffffffffffffffffffffffffffffffff021916908373ffffffffffffffffffffffffffffffffffffffff1602179055508173ffffffffffffffffffffffffffffffffffffffff168173ffffffffffffffffffffffffffffffffffffffff167f8be0079c531659141344cd1fd0a4f28419497f9722a3daafe3b4186f6b6457e060405160405180910390a35050565b6110886114f9565b6001600560006101000a81548160ff0219169083151502179055507f62e78cea01bee320cd4e420270b5ea74000d11b0c9f74754ebdbfc544b05a2586110cc610aba565b6040516110d99190611c60565b60405180910390a1565b60008373ffffffffffffffffffffffffffffffffffffffff163b0361113f57826040517fdeb6d3ed0000000000000000000000000000000000000000000000000000000081526004016111369190611c60565b60405180910390fd5b8273ffffffffffffffffffffffffffffffffffffffff16637b04a2d0611163610aba565b84846040518463ffffffff1660e01b815260040161118393929190611f18565b6020604051808303816000875af19250505080156111bf57506040513d601f19601f820116820180604052508101906111bc9190611eeb565b60015b611243573d80600081146111ef576040519150601f19603f3d011682016040523d82523d6000602084013e6111f4565b606091505b50600081510361123b57836040517fdeb6d3ed0000000000000000000000000000000000000000000000000000000081526004016112329190611c60565b60405180910390fd5b805181602001fd5b637b04a2d060e01b7bffffffffffffffffffffffffffffffffffffffffffffffffffffffff1916817bffffffffffffffffffffffffffffffffffffffffffffffffffffffff1916146112cc57836040517fdeb6d3ed0000000000000000000000000000000000000000000000000000000081526004016112c39190611c60565b60405180910390fd5b50505050565b600073ffffffffffffffffffffffffffffffffffffffff168473ffffffffffffffffffffffffffffffffffffffff16036113445760006040517fe602df0500000000000000000000000000000000000000000000000000000000815260040161133b9190611c60565b60405180910390fd5b600073ffffffffffffffffffffffffffffffffffffffff168373ffffffffffffffffffffffffffffffffffffffff16036113b65760006040517f94280d620000000000000000000000000000000000000000000000000000000081526004016113ad9190611c60565b60405180910390fd5b81600160008673ffffffffffffffffffffffffffffffffffffffff1673ffffffffffffffffffffffffffffffffffffffff16815260200190815260200160002060008573ffffffffffffffffffffffffffffffffffffffff1673ffffffffffffffffffffffffffffffffffffffff1681526020019081526020016000208190555080156114a3578273ffffffffffffffffffffffffffffffffffffffff168473ffffffffffffffffffffffffffffffffffffffff167f8c5be1e5ebec7d5bd14f71427d1e84f3dd0314c0f7b2291e5b200ac8c7c3b9258460405161149a91906119db565b60405180910390a35b50505050565b6114b483838361153a565b505050565b6114c16106ea565b6114f7576040517f8dfc202b00000000000000000000000000000000000000000000000000000000815260040160405180910390fd5b565b6115016106ea565b15611538576040517fd93c066500000000000000000000000000000000000000000000000000000000815260040160405180910390fd5b565b6115426114f9565b61154d838383611552565b505050565b600073ffffffffffffffffffffffffffffffffffffffff168373ffffffffffffffffffffffffffffffffffffffff16036115a45780600260008282546115989190611f85565b92505081905550611677565b60008060008573ffffffffffffffffffffffffffffffffffffffff1673ffffffffffffffffffffffffffffffffffffffff16815260200190815260200160002054905081811015611630578381836040517fe450d38c00000000000000000000000000000000000000000000000000000000815260040161162793929190611dfe565b60405180910390fd5b8181036000808673ffffffffffffffffffffffffffffffffffffffff1673ffffffffffffffffffffffffffffffffffffffff16815260200190815260200160002081905550505b600073ffffffffffffffffffffffffffffffffffffffff168273ffffffffffffffffffffffffffffffffffffffff16036116c0578060026000828254039250508190555061170d565b806000808473ffffffffffffffffffffffffffffffffffffffff1673ffffffffffffffffffffffffffffffffffffffff168152602001908152602001600020600082825401925050819055505b8173ffffffffffffffffffffffffffffffffffffffff168373ffffffffffffffffffffffffffffffffffffffff167fddf252ad1be2c89b69c2b068fc378daa952ba7f163c4a11628f55a4df523b3ef8360405161176a91906119db565b60405180910390a3505050565b6000604051905090565b600080fd5b600080fd5b60007fffffffff0000000000000000000000000000000000000000000000000000000082169050919050565b6117c08161178b565b81146117cb57600080fd5b50565b6000813590506117dd816117b7565b92915050565b6000602082840312156117f9576117f8611781565b5b6000611807848285016117ce565b91505092915050565b60008115159050919050565b61182581611810565b82525050565b6000602082019050611840600083018461181c565b92915050565b600081519050919050565b600082825260208201905092915050565b60005b83811015611880578082015181840152602081019050611865565b60008484015250505050565b6000601f19601f8301169050919050565b60006118a882611846565b6118b28185611851565b93506118c2818560208601611862565b6118cb8161188c565b840191505092915050565b600060208201905081810360008301526118f0818461189d565b905092915050565b600073ffffffffffffffffffffffffffffffffffffffff82169050919050565b6000611923826118f8565b9050919050565b61193381611918565b811461193e57600080fd5b50565b6000813590506119508161192a565b92915050565b6000819050919050565b61196981611956565b811461197457600080fd5b50565b60008135905061198681611960565b92915050565b600080604083850312156119a3576119a2611781565b5b60006119b185828601611941565b92505060206119c285828601611977565b9150509250929050565b6119d581611956565b82525050565b60006020820190506119f060008301846119cc565b92915050565b600080600060608486031215611a0f57611a0e611781565b5b6000611a1d86828701611941565b9350506020611a2e86828701611941565b9250506040611a3f86828701611977565b9150509250925092565b600060ff82169050919050565b611a5f81611a49565b82525050565b6000602082019050611a7a6000830184611a56565b92915050565b600080fd5b600080fd5b7f4e487b7100000000000000000000000000000000000000000000000000000000600052604160045260246000fd5b611ac28261188c565b810181811067ffffffffffffffff82111715611ae157611ae0611a8a565b5b80604052505050565b6000611af4611777565b9050611b008282611ab9565b919050565b600067ffffffffffffffff821115611b2057611b1f611a8a565b5b611b298261188c565b9050602081019050919050565b82818337600083830152505050565b6000611b58611b5384611b05565b611aea565b905082815260208101848484011115611b7457611b73611a85565b5b611b7f848285611b36565b509392505050565b600082601f830112611b9c57611b9b611a80565b5b8135611bac848260208601611b45565b91505092915050565b600080600060608486031215611bce57611bcd611781565b5b6000611bdc86828701611941565b9350506020611bed86828701611977565b925050604084013567ffffffffffffffff811115611c0e57611c0d611786565b5b611c1a86828701611b87565b9150509250925092565b600060208284031215611c3a57611c39611781565b5b6000611c4884828501611941565b91505092915050565b611c5a81611918565b82525050565b6000602082019050611c756000830184611c51565b92915050565b60008060008060808587031215611c9557611c94611781565b5b6000611ca387828801611941565b9450506020611cb487828801611941565b9350506040611cc587828801611977565b925050606085013567ffffffffffffffff811115611ce657611ce5611786565b5b611cf287828801611b87565b91505092959194509250565b60008060408385031215611d1557611d14611781565b5b6000611d2385828601611941565b9250506020611d3485828601611941565b9150509250929050565b7f4e487b7100000000000000000000000000000000000000000000000000000000600052602260045260246000fd5b60006002820490506001821680611d8557607f821691505b602082108103611d9857611d97611d3e565b5b50919050565b6000604082019050611db36000830185611c51565b611dc060208301846119cc565b9392505050565b6000606082019050611ddc6000830186611c51565b611de96020830185611c51565b611df660408301846119cc565b949350505050565b6000606082019050611e136000830186611c51565b611e2060208301856119cc565b611e2d60408301846119cc565b949350505050565b600081519050919050565b600082825260208201905092915050565b6000611e5c82611e35565b611e668185611e40565b9350611e76818560208601611862565b611e7f8161188c565b840191505092915050565b6000608082019050611e9f6000830187611c51565b611eac6020830186611c51565b611eb960408301856119cc565b8181036060830152611ecb8184611e51565b905095945050505050565b600081519050611ee5816117b7565b92915050565b600060208284031215611f0157611f00611781565b5b6000611f0f84828501611ed6565b91505092915050565b6000606082019050611f2d6000830186611c51565b611f3a60208301856119cc565b8181036040830152611f4c8184611e51565b9050949350505050565b7f4e487b7100000000000000000000000000000000000000000000000000000000600052601160045260246000fd5b6000611f9082611956565b9150611f9b83611956565b9250828201905080821115611fb357611fb2611f56565b5b9291505056fea26469706673582212201290e97993d72838116f2ca736f87fb000cc5953eaca8cd264e4712534693d4d64736f6c63430008180033",
  "linkReferences": {},
  "deployedLinkReferences": {}
}