{
  "_format": "hh-sol-artifact-1",
  "contractName": "ERC20_Mint",
  "sourceName": "contracts/ERC20_Mint.sol",
  "abi": [
    {
      "inputs": [
        {
          "internalType": "address",
          "name": "initialOwner",
          "type": "address"
        },
        {
          "internalType": "string",
          "name": "_tokenName",
          "type": "string"
        },
        {
          "internalType": "string",
          "name": "_tokenTicker",
          "type": "string"
        },
        {
          "internalType": "uint256",
          "name": "_supply",
          "type": "uint256"
        }
      ],
      "stateMutability": "nonpayable",
      "type": "constructor"
    },
    {
      "inputs": [
        {
          "internalType": "address",
          "name": "spender",
          "type": "address"
        },
        {
          "internalType": "uint256",
          "name": "value",
          "type": "uint256"
        }
      ],
      "name": "ERC1363ApproveFailed",
      "type": "error"
    },
    {
      "inputs": [
        {
          "internalType": "address",
          "name": "receiver",
          "type": "address"
        }
      ],
      "name": "ERC1363InvalidReceiver",
      "type": "error"
    },
    {
      "inputs": [
        {
          "internalType": "address",
          "name": "spender",
          "type": "address"
        }
      ],
      "name": "ERC1363InvalidSpender",
      "type": "error"
    },
    {
      "inputs": [
        {
          "internalType": "address",
          "name": "to",
          "type": "address"
        },
        {
          "internalType": "uint256",
          "name": "value",
          "type": "uint256"
        }
      ],
      "name": "ERC1363TransferFailed",
      "type": "error"
    },
    {
      "inputs": [
        {
          "internalType": "address",
          "name": "from",
          "type": "address"
        },
        {
          "internalType": "address",
          "name": "to",
          "type": "address"
        },
        {
          "internalType": "uint256",
          "name": "value",
          "type": "uint256"
        }
      ],
      "name": "ERC1363TransferFromFailed",
      "type": "error"
    },
    {
      "inputs": [
        {
          "internalType": "address",
          "name": "spender",
          "type": "address"
        },
        {
          "internalType": "uint256",
          "name": "allowance",
          "type": "uint256"
        },
        {
          "internalType": "uint256",
          "name": "needed",
          "type": "uint256"
        }
      ],
      "name": "ERC20InsufficientAllowance",
      "type": "error"
    },
    {
      "inputs": [
        {
          "internalType": "address",
          "name": "sender",
          "type": "address"
        },
        {
          "internalType": "uint256",
          "name": "balance",
          "type": "uint256"
        },
        {
          "internalType": "uint256",
          "name": "needed",
          "type": "uint256"
        }
      ],
      "name": "ERC20InsufficientBalance",
      "type": "error"
    },
    {
      "inputs": [
        {
          "internalType": "address",
          "name": "approver",
          "type": "address"
        }
      ],
      "name": "ERC20InvalidApprover",
      "type": "error"
    },
    {
      "inputs": [
        {
          "internalType": "address",
          "name": "receiver",
          "type": "address"
        }
      ],
      "name": "ERC20InvalidReceiver",
      "type": "error"
    },
    {
      "inputs": [
        {
          "internalType": "address",
          "name": "sender",
          "type": "address"
        }
      ],
      "name": "ERC20InvalidSender",
      "type": "error"
    },
    {
      "inputs": [
        {
          "internalType": "address",
          "name": "spender",
          "type": "address"
        }
      ],
      "name": "ERC20InvalidSpender",
      "type": "error"
    },
    {
      "inputs": [
        {
          "internalType": "address",
          "name": "owner",
          "type": "address"
        }
      ],
      "name": "OwnableInvalidOwner",
      "type": "error"
    },
    {
      "inputs": [
        {
          "internalType": "address",
          "name": "account",
          "type": "address"
        }
      ],
      "name": "OwnableUnauthorizedAccount",
      "type": "error"
    },
    {
      "anonymous": false,
      "inputs": [
        {
          "indexed": true,
          "internalType": "address",
          "name": "owner",
          "type": "address"
        },
        {
          "indexed": true,
          "internalType": "address",
          "name": "spender",
          "type": "address"
        },
        {
          "indexed": false,
          "internalType": "uint256",
          "name": "value",
          "type": "uint256"
        }
      ],
      "name": "Approval",
      "type": "event"
    },
    {
      "anonymous": false,
      "inputs": [
        {
          "indexed": true,
          "internalType": "address",
          "name": "previousOwner",
          "type": "address"
        },
        {
          "indexed": true,
          "internalType": "address",
          "name": "newOwner",
          "type": "address"
        }
      ],
      "name": "OwnershipTransferred",
      "type": "event"
    },
    {
      "anonymous": false,
      "inputs": [
        {
          "indexed": true,
          "internalType": "address",
          "name": "from",
          "type": "address"
        },
        {
          "indexed": true,
          "internalType": "address",
          "name": "to",
          "type": "address"
        },
        {
          "indexed": false,
          "internalType": "uint256",
          "name": "value",
          "type": "uint256"
        }
      ],
      "name": "Transfer",
      "type": "event"
    },
    {
      "inputs": [
        {
          "internalType": "address",
          "name": "owner",
          "type": "address"
        },
        {
          "internalType": "address",
          "name": "spender",
          "type": "address"
        }
      ],
      "name": "allowance",
      "outputs": [
        {
          "internalType": "uint256",
          "name": "",
          "type": "uint256"
        }
      ],
      "stateMutability": "view",
      "type": "function"
    },
    {
      "inputs": [
        {
          "internalType": "address",
          "name": "spender",
          "type": "address"
        },
        {
          "internalType": "uint256",
          "name": "value",
          "type": "uint256"
        }
      ],
      "name": "approve",
      "outputs": [
        {
          "internalType": "bool",
          "name": "",
          "type": "bool"
        }
      ],
      "stateMutability": "nonpayable",
      "type": "function"
    },
    {
      "inputs": [
        {
          "internalType": "address",
          "name": "spender",
          "type": "address"
        },
        {
          "internalType": "uint256",
          "name": "value",
          "type": "uint256"
        }
      ],
      "name": "approveAndCall",
      "outputs": [
        {
          "internalType": "bool",
          "name": "",
          "type": "bool"
        }
      ],
      "stateMutability": "nonpayable",
      "type": "function"
    },
    {
      "inputs": [
        {
          "internalType": "address",
          "name": "spender",
          "type": "address"
        },
        {
          "internalType": "uint256",
          "name": "value",
          "type": "uint256"
        },
        {
          "internalType": "bytes",
          "name": "data",
          "type": "bytes"
        }
      ],
      "name": "approveAndCall",
      "outputs": [
        {
          "internalType": "bool",
          "name": "",
          "type": "bool"
        }
      ],
      "stateMutability": "nonpayable",
      "type": "function"
    },
    {
      "inputs": [
        {
          "internalType": "address",
          "name": "account",
          "type": "address"
        }
      ],
      "name": "balanceOf",
      "outputs": [
        {
          "internalType": "uint256",
          "name": "",
          "type": "uint256"
        }
      ],
      "stateMutability": "view",
      "type": "function"
    },
    {
      "inputs": [],
      "name": "decimals",
      "outputs": [
        {
          "internalType": "uint8",
          "name": "",
          "type": "uint8"
        }
      ],
      "stateMutability": "view",
      "type": "function"
    },
    {
      "inputs": [
        {
          "internalType": "address",
          "name": "to",
          "type": "address"
        },
        {
          "internalType": "uint256",
          "name": "amount",
          "type": "uint256"
        }
      ],
      "name": "mint",
      "outputs": [],
      "stateMutability": "nonpayable",
      "type": "function"
    },
    {
      "inputs": [],
      "name": "name",
      "outputs": [
        {
          "internalType": "string",
          "name": "",
          "type": "string"
        }
      ],
      "stateMutability": "view",
      "type": "function"
    },
    {
      "inputs": [],
      "name": "owner",
      "outputs": [
        {
          "internalType": "address",
          "name": "",
          "type": "address"
        }
      ],
      "stateMutability": "view",
      "type": "function"
    },
    {
      "inputs": [],
      "name": "renounceOwnership",
      "outputs": [],
      "stateMutability": "nonpayable",
      "type": "function"
    },
    {
      "inputs": [
        {
          "internalType": "bytes4",
          "name": "interfaceId",
          "type": "bytes4"
        }
      ],
      "name": "supportsInterface",
      "outputs": [
        {
          "internalType": "bool",
          "name": "",
          "type": "bool"
        }
      ],
      "stateMutability": "view",
      "type": "function"
    },
    {
      "inputs": [],
      "name": "symbol",
      "outputs": [
        {
          "internalType": "string",
          "name": "",
          "type": "string"
        }
      ],
      "stateMutability": "view",
      "type": "function"
    },
    {
      "inputs": [],
      "name": "totalSupply",
      "outputs": [
        {
          "internalType": "uint256",
          "name": "",
          "type": "uint256"
        }
      ],
      "stateMutability": "view",
      "type": "function"
    },
    {
      "inputs": [
        {
          "internalType": "address",
          "name": "to",
          "type": "address"
        },
        {
          "internalType": "uint256",
          "name": "value",
          "type": "uint256"
        }
      ],
      "name": "transfer",
      "outputs": [
        {
          "internalType": "bool",
          "name": "",
          "type": "bool"
        }
      ],
      "stateMutability": "nonpayable",
      "type": "function"
    },
    {
      "inputs": [
        {
          "internalType": "address",
          "name": "to",
          "type": "address"
        },
        {
          "internalType": "uint256",
          "name": "value",
          "type": "uint256"
        }
      ],
      "name": "transferAndCall",
      "outputs": [
        {
          "internalType": "bool",
          "name": "",
          "type": "bool"
        }
      ],
      "stateMutability": "nonpayable",
      "type": "function"
    },
    {
      "inputs": [
        {
          "internalType": "address",
          "name": "to",
          "type": "address"
        },
        {
          "internalType": "uint256",
          "name": "value",
          "type": "uint256"
        },
        {
          "internalType": "bytes",
          "name": "data",
          "type": "bytes"
        }
      ],
      "name": "transferAndCall",
      "outputs": [
        {
          "internalType": "bool",
          "name": "",
          "type": "bool"
        }
      ],
      "stateMutability": "nonpayable",
      "type": "function"
    },
    {
      "inputs": [
        {
          "internalType": "address",
          "name": "from",
          "type": "address"
        },
        {
          "internalType": "address",
          "name": "to",
          "type": "address"
        },
        {
          "internalType": "uint256",
          "name": "value",
          "type": "uint256"
        }
      ],
      "name": "transferFrom",
      "outputs": [
        {
          "internalType": "bool",
          "name": "",
          "type": "bool"
        }
      ],
      "stateMutability": "nonpayable",
      "type": "function"
    },
    {
      "inputs": [
        {
          "internalType": "address",
          "name": "from",
          "type": "address"
        },
        {
          "internalType": "address",
          "name": "to",
          "type": "address"
        },
        {
          "internalType": "uint256",
          "name": "value",
          "type": "uint256"
        },
        {
          "internalType": "bytes",
          "name": "data",
          "type": "bytes"
        }
      ],
      "name": "transferFromAndCall",
      "outputs": [
        {
          "internalType": "bool",
          "name": "",
          "type": "bool"
        }
      ],
      "stateMutability": "nonpayable",
      "type": "function"
    },
    {
      "inputs": [
        {
          "internalType": "address",
          "name": "from",
          "type": "address"
        },
        {
          "internalType": "address",
          "name": "to",
          "type": "address"
        },
        {
          "internalType": "uint256",
          "name": "value",
          "type": "uint256"
        }
      ],
      "name": "transferFromAndCall",
      "outputs": [
        {
          "internalType": "bool",
          "name": "",
          "type": "bool"
        }
      ],
      "stateMutability": "nonpayable",
      "type": "function"
    },
    {
      "inputs": [
        {
          "internalType": "address",
          "name": "newOwner",
          "type": "address"
        }
      ],
      "name": "transferOwnership",
      "outputs": [],
      "stateMutability": "nonpayable",
      "type": "function"
    }
  ],
  "bytecode": "0x60806040523480156200001157600080fd5b5060405162002bc638038062002bc68339818101604052810190620000379190620006ec565b83838381600390816200004b9190620009dd565b5080600490816200005d9190620009dd565b505050600073ffffffffffffffffffffffffffffffffffffffff168173ffffffffffffffffffffffffffffffffffffffff1603620000d55760006040517f1e4fbdf7000000000000000000000000000000000000000000000000000000008152600401620000cc919062000ad5565b60405180910390fd5b620000e6816200012d60201b60201c565b506200012333620000fc620001f360201b60201c565b600a6200010a919062000c82565b8362000117919062000cd3565b620001fc60201b60201c565b5050505062000dc4565b6000600560009054906101000a900473ffffffffffffffffffffffffffffffffffffffff16905081600560006101000a81548173ffffffffffffffffffffffffffffffffffffffff021916908373ffffffffffffffffffffffffffffffffffffffff1602179055508173ffffffffffffffffffffffffffffffffffffffff168173ffffffffffffffffffffffffffffffffffffffff167f8be0079c531659141344cd1fd0a4f28419497f9722a3daafe3b4186f6b6457e060405160405180910390a35050565b60006012905090565b600073ffffffffffffffffffffffffffffffffffffffff168273ffffffffffffffffffffffffffffffffffffffff1603620002715760006040517fec442f0500000000000000000000000000000000000000000000000000000000815260040162000268919062000ad5565b60405180910390fd5b62000285600083836200028960201b60201c565b5050565b600073ffffffffffffffffffffffffffffffffffffffff168373ffffffffffffffffffffffffffffffffffffffff1603620002df578060026000828254620002d2919062000d1e565b92505081905550620003b5565b60008060008573ffffffffffffffffffffffffffffffffffffffff1673ffffffffffffffffffffffffffffffffffffffff168152602001908152602001600020549050818110156200036e578381836040517fe450d38c000000000000000000000000000000000000000000000000000000008152600401620003659392919062000d6a565b60405180910390fd5b8181036000808673ffffffffffffffffffffffffffffffffffffffff1673ffffffffffffffffffffffffffffffffffffffff16815260200190815260200160002081905550505b600073ffffffffffffffffffffffffffffffffffffffff168273ffffffffffffffffffffffffffffffffffffffff16036200040057806002600082825403925050819055506200044d565b806000808473ffffffffffffffffffffffffffffffffffffffff1673ffffffffffffffffffffffffffffffffffffffff168152602001908152602001600020600082825401925050819055505b8173ffffffffffffffffffffffffffffffffffffffff168373ffffffffffffffffffffffffffffffffffffffff167fddf252ad1be2c89b69c2b068fc378daa952ba7f163c4a11628f55a4df523b3ef83604051620004ac919062000da7565b60405180910390a3505050565b6000604051905090565b600080fd5b600080fd5b600073ffffffffffffffffffffffffffffffffffffffff82169050919050565b6000620004fa82620004cd565b9050919050565b6200050c81620004ed565b81146200051857600080fd5b50565b6000815190506200052c8162000501565b92915050565b600080fd5b600080fd5b6000601f19601f8301169050919050565b7f4e487b7100000000000000000000000000000000000000000000000000000000600052604160045260246000fd5b62000587826200053c565b810181811067ffffffffffffffff82111715620005a957620005a86200054d565b5b80604052505050565b6000620005be620004b9565b9050620005cc82826200057c565b919050565b600067ffffffffffffffff821115620005ef57620005ee6200054d565b5b620005fa826200053c565b9050602081019050919050565b60005b83811015620006275780820151818401526020810190506200060a565b60008484015250505050565b60006200064a6200064484620005d1565b620005b2565b90508281526020810184848401111562000669576200066862000537565b5b6200067684828562000607565b509392505050565b600082601f83011262000696576200069562000532565b5b8151620006a884826020860162000633565b91505092915050565b6000819050919050565b620006c681620006b1565b8114620006d257600080fd5b50565b600081519050620006e681620006bb565b92915050565b60008060008060808587031215620007095762000708620004c3565b5b600062000719878288016200051b565b945050602085015167ffffffffffffffff8111156200073d576200073c620004c8565b5b6200074b878288016200067e565b935050604085015167ffffffffffffffff8111156200076f576200076e620004c8565b5b6200077d878288016200067e565b92505060606200079087828801620006d5565b91505092959194509250565b600081519050919050565b7f4e487b7100000000000000000000000000000000000000000000000000000000600052602260045260246000fd5b60006002820490506001821680620007ef57607f821691505b602082108103620008055762000804620007a7565b5b50919050565b60008190508160005260206000209050919050565b60006020601f8301049050919050565b600082821b905092915050565b6000600883026200086f7fffffffffffffffffffffffffffffffffffffffffffffffffffffffffffffffff8262000830565b6200087b868362000830565b95508019841693508086168417925050509392505050565b6000819050919050565b6000620008be620008b8620008b284620006b1565b62000893565b620006b1565b9050919050565b6000819050919050565b620008da836200089d565b620008f2620008e982620008c5565b8484546200083d565b825550505050565b600090565b62000909620008fa565b62000916818484620008cf565b505050565b5b818110156200093e5762000932600082620008ff565b6001810190506200091c565b5050565b601f8211156200098d5762000957816200080b565b620009628462000820565b8101602085101562000972578190505b6200098a620009818562000820565b8301826200091b565b50505b505050565b600082821c905092915050565b6000620009b26000198460080262000992565b1980831691505092915050565b6000620009cd83836200099f565b9150826002028217905092915050565b620009e8826200079c565b67ffffffffffffffff81111562000a045762000a036200054d565b5b62000a108254620007d6565b62000a1d82828562000942565b600060209050601f83116001811462000a55576000841562000a40578287015190505b62000a4c8582620009bf565b86555062000abc565b601f19841662000a65866200080b565b60005b8281101562000a8f5784890151825560018201915060208501945060208101905062000a68565b8683101562000aaf578489015162000aab601f8916826200099f565b8355505b6001600288020188555050505b505050505050565b62000acf81620004ed565b82525050565b600060208201905062000aec600083018462000ac4565b92915050565b7f4e487b7100000000000000000000000000000000000000000000000000000000600052601160045260246000fd5b60008160011c9050919050565b6000808291508390505b600185111562000b805780860481111562000b585762000b5762000af2565b5b600185161562000b685780820291505b808102905062000b788562000b21565b945062000b38565b94509492505050565b60008262000b9b576001905062000c6e565b8162000bab576000905062000c6e565b816001811462000bc4576002811462000bcf5762000c05565b600191505062000c6e565b60ff84111562000be45762000be362000af2565b5b8360020a91508482111562000bfe5762000bfd62000af2565b5b5062000c6e565b5060208310610133831016604e8410600b841016171562000c3f5782820a90508381111562000c395762000c3862000af2565b5b62000c6e565b62000c4e848484600162000b2e565b9250905081840481111562000c685762000c6762000af2565b5b81810290505b9392505050565b600060ff82169050919050565b600062000c8f82620006b1565b915062000c9c8362000c75565b925062000ccb7fffffffffffffffffffffffffffffffffffffffffffffffffffffffffffffffff848462000b89565b905092915050565b600062000ce082620006b1565b915062000ced83620006b1565b925082820262000cfd81620006b1565b9150828204841483151762000d175762000d1662000af2565b5b5092915050565b600062000d2b82620006b1565b915062000d3883620006b1565b925082820190508082111562000d535762000d5262000af2565b5b92915050565b62000d6481620006b1565b82525050565b600060608201905062000d81600083018662000ac4565b62000d90602083018562000d59565b62000d9f604083018462000d59565b949350505050565b600060208201905062000dbe600083018462000d59565b92915050565b611df28062000dd46000396000f3fe608060405234801561001057600080fd5b506004361061012c5760003560e01c806370a08231116100ad578063c1d34b8911610071578063c1d34b891461036d578063cae9ca511461039d578063d8fbe994146103cd578063dd62ed3e146103fd578063f2fde38b1461042d5761012c565b806370a08231146102c7578063715018a6146102f75780638da5cb5b1461030157806395d89b411461031f578063a9059cbb1461033d5761012c565b806323b872dd116100f457806323b872dd146101fd578063313ce5671461022d5780633177029f1461024b5780634000aea01461027b57806340c10f19146102ab5761012c565b806301ffc9a71461013157806306fdde0314610161578063095ea7b31461017f5780631296ee62146101af57806318160ddd146101df575b600080fd5b61014b600480360381019061014691906115e6565b610449565b604051610158919061162e565b60405180910390f35b6101696104c3565b60405161017691906116d9565b60405180910390f35b6101996004803603810190610194919061178f565b610555565b6040516101a6919061162e565b60405180910390f35b6101c960048036038101906101c4919061178f565b610578565b6040516101d6919061162e565b60405180910390f35b6101e761059c565b6040516101f491906117de565b60405180910390f35b610217600480360381019061021291906117f9565b6105a6565b604051610224919061162e565b60405180910390f35b6102356105d5565b6040516102429190611868565b60405180910390f35b6102656004803603810190610260919061178f565b6105de565b604051610272919061162e565b60405180910390f35b610295600480360381019061029091906119b8565b610602565b6040516102a2919061162e565b60405180910390f35b6102c560048036038101906102c0919061178f565b61066f565b005b6102e160048036038101906102dc9190611a27565b610685565b6040516102ee91906117de565b60405180910390f35b6102ff6106cd565b005b6103096106e1565b6040516103169190611a63565b60405180910390f35b61032761070b565b60405161033491906116d9565b60405180910390f35b6103576004803603810190610352919061178f565b61079d565b604051610364919061162e565b60405180910390f35b61038760048036038101906103829190611a7e565b6107c0565b604051610394919061162e565b60405180910390f35b6103b760048036038101906103b291906119b8565b61082a565b6040516103c4919061162e565b60405180910390f35b6103e760048036038101906103e291906117f9565b61088f565b6040516103f4919061162e565b60405180910390f35b61041760048036038101906104129190611b01565b6108b5565b60405161042491906117de565b60405180910390f35b61044760048036038101906104429190611a27565b61093c565b005b60007fb0202a11000000000000000000000000000000000000000000000000000000007bffffffffffffffffffffffffffffffffffffffffffffffffffffffff1916827bffffffffffffffffffffffffffffffffffffffffffffffffffffffff191614806104bc57506104bb826109c2565b5b9050919050565b6060600380546104d290611b70565b80601f01602080910402602001604051908101604052809291908181526020018280546104fe90611b70565b801561054b5780601f106105205761010080835404028352916020019161054b565b820191906000526020600020905b81548152906001019060200180831161052e57829003601f168201915b5050505050905090565b600080610560610a2c565b905061056d818585610a34565b600191505092915050565b6000610594838360405180602001604052806000815250610602565b905092915050565b6000600254905090565b6000806105b1610a2c565b90506105be858285610a46565b6105c9858585610ada565b60019150509392505050565b60006012905090565b60006105fa83836040518060200160405280600081525061082a565b905092915050565b600061060e848461079d565b6106515783836040517f231b03ae000000000000000000000000000000000000000000000000000000008152600401610648929190611ba1565b60405180910390fd5b61066461065c610a2c565b858585610bce565b600190509392505050565b610677610dc0565b6106818282610e47565b5050565b60008060008373ffffffffffffffffffffffffffffffffffffffff1673ffffffffffffffffffffffffffffffffffffffff168152602001908152602001600020549050919050565b6106d5610dc0565b6106df6000610ec9565b565b6000600560009054906101000a900473ffffffffffffffffffffffffffffffffffffffff16905090565b60606004805461071a90611b70565b80601f016020809104026020016040519081016040528092919081815260200182805461074690611b70565b80156107935780601f1061076857610100808354040283529160200191610793565b820191906000526020600020905b81548152906001019060200180831161077657829003601f168201915b5050505050905090565b6000806107a8610a2c565b90506107b5818585610ada565b600191505092915050565b60006107cd8585856105a6565b610812578484846040517fb56855e600000000000000000000000000000000000000000000000000000000815260040161080993929190611bca565b60405180910390fd5b61081e85858585610bce565b60019050949350505050565b60006108368484610555565b6108795783836040517f50e555c4000000000000000000000000000000000000000000000000000000008152600401610870929190611ba1565b60405180910390fd5b610884848484610f8f565b600190509392505050565b60006108ac848484604051806020016040528060008152506107c0565b90509392505050565b6000600160008473ffffffffffffffffffffffffffffffffffffffff1673ffffffffffffffffffffffffffffffffffffffff16815260200190815260200160002060008373ffffffffffffffffffffffffffffffffffffffff1673ffffffffffffffffffffffffffffffffffffffff16815260200190815260200160002054905092915050565b610944610dc0565b600073ffffffffffffffffffffffffffffffffffffffff168173ffffffffffffffffffffffffffffffffffffffff16036109b65760006040517f1e4fbdf70000000000000000000000000000000000000000000000000000000081526004016109ad9190611a63565b60405180910390fd5b6109bf81610ec9565b50565b60007f01ffc9a7000000000000000000000000000000000000000000000000000000007bffffffffffffffffffffffffffffffffffffffffffffffffffffffff1916827bffffffffffffffffffffffffffffffffffffffffffffffffffffffff1916149050919050565b600033905090565b610a41838383600161117e565b505050565b6000610a5284846108b5565b90507fffffffffffffffffffffffffffffffffffffffffffffffffffffffffffffffff8114610ad45781811015610ac4578281836040517ffb8f41b2000000000000000000000000000000000000000000000000000000008152600401610abb93929190611c01565b60405180910390fd5b610ad38484848403600061117e565b5b50505050565b600073ffffffffffffffffffffffffffffffffffffffff168373ffffffffffffffffffffffffffffffffffffffff1603610b4c5760006040517f96c6fd1e000000000000000000000000000000000000000000000000000000008152600401610b439190611a63565b60405180910390fd5b600073ffffffffffffffffffffffffffffffffffffffff168273ffffffffffffffffffffffffffffffffffffffff1603610bbe5760006040517fec442f05000000000000000000000000000000000000000000000000000000008152600401610bb59190611a63565b60405180910390fd5b610bc9838383611355565b505050565b60008373ffffffffffffffffffffffffffffffffffffffff163b03610c2a57826040517f8a96cd9c000000000000000000000000000000000000000000000000000000008152600401610c219190611a63565b60405180910390fd5b8273ffffffffffffffffffffffffffffffffffffffff166388a7ca5c610c4e610a2c565b8685856040518563ffffffff1660e01b8152600401610c709493929190611c8d565b6020604051808303816000875af1925050508015610cac57506040513d601f19601f82011682018060405250810190610ca99190611cee565b60015b610d30573d8060008114610cdc576040519150601f19603f3d011682016040523d82523d6000602084013e610ce1565b606091505b506000815103610d2857836040517f8a96cd9c000000000000000000000000000000000000000000000000000000008152600401610d1f9190611a63565b60405180910390fd5b805181602001fd5b6388a7ca5c60e01b7bffffffffffffffffffffffffffffffffffffffffffffffffffffffff1916817bffffffffffffffffffffffffffffffffffffffffffffffffffffffff191614610db957836040517f8a96cd9c000000000000000000000000000000000000000000000000000000008152600401610db09190611a63565b60405180910390fd5b5050505050565b610dc8610a2c565b73ffffffffffffffffffffffffffffffffffffffff16610de66106e1565b73ffffffffffffffffffffffffffffffffffffffff1614610e4557610e09610a2c565b6040517f118cdaa7000000000000000000000000000000000000000000000000000000008152600401610e3c9190611a63565b60405180910390fd5b565b600073ffffffffffffffffffffffffffffffffffffffff168273ffffffffffffffffffffffffffffffffffffffff1603610eb95760006040517fec442f05000000000000000000000000000000000000000000000000000000008152600401610eb09190611a63565b60405180910390fd5b610ec560008383611355565b5050565b6000600560009054906101000a900473ffffffffffffffffffffffffffffffffffffffff16905081600560006101000a81548173ffffffffffffffffffffffffffffffffffffffff021916908373ffffffffffffffffffffffffffffffffffffffff1602179055508173ffffffffffffffffffffffffffffffffffffffff168173ffffffffffffffffffffffffffffffffffffffff167f8be0079c531659141344cd1fd0a4f28419497f9722a3daafe3b4186f6b6457e060405160405180910390a35050565b60008373ffffffffffffffffffffffffffffffffffffffff163b03610feb57826040517fdeb6d3ed000000000000000000000000000000000000000000000000000000008152600401610fe29190611a63565b60405180910390fd5b8273ffffffffffffffffffffffffffffffffffffffff16637b04a2d061100f610a2c565b84846040518463ffffffff1660e01b815260040161102f93929190611d1b565b6020604051808303816000875af192505050801561106b57506040513d601f19601f820116820180604052508101906110689190611cee565b60015b6110ef573d806000811461109b576040519150601f19603f3d011682016040523d82523d6000602084013e6110a0565b606091505b5060008151036110e757836040517fdeb6d3ed0000000000000000000000000000000000000000000000000000000081526004016110de9190611a63565b60405180910390fd5b805181602001fd5b637b04a2d060e01b7bffffffffffffffffffffffffffffffffffffffffffffffffffffffff1916817bffffffffffffffffffffffffffffffffffffffffffffffffffffffff19161461117857836040517fdeb6d3ed00000000000000000000000000000000000000000000000000000000815260040161116f9190611a63565b60405180910390fd5b50505050565b600073ffffffffffffffffffffffffffffffffffffffff168473ffffffffffffffffffffffffffffffffffffffff16036111f05760006040517fe602df050000000000000000000000000000000000000000000000000000000081526004016111e79190611a63565b60405180910390fd5b600073ffffffffffffffffffffffffffffffffffffffff168373ffffffffffffffffffffffffffffffffffffffff16036112625760006040517f94280d620000000000000000000000000000000000000000000000000000000081526004016112599190611a63565b60405180910390fd5b81600160008673ffffffffffffffffffffffffffffffffffffffff1673ffffffffffffffffffffffffffffffffffffffff16815260200190815260200160002060008573ffffffffffffffffffffffffffffffffffffffff1673ffffffffffffffffffffffffffffffffffffffff16815260200190815260200160002081905550801561134f578273ffffffffffffffffffffffffffffffffffffffff168473ffffffffffffffffffffffffffffffffffffffff167f8c5be1e5ebec7d5bd14f71427d1e84f3dd0314c0f7b2291e5b200ac8c7c3b9258460405161134691906117de565b60405180910390a35b50505050565b600073ffffffffffffffffffffffffffffffffffffffff168373ffffffffffffffffffffffffffffffffffffffff16036113a757806002600082825461139b9190611d88565b9250508190555061147a565b60008060008573ffffffffffffffffffffffffffffffffffffffff1673ffffffffffffffffffffffffffffffffffffffff16815260200190815260200160002054905081811015611433578381836040517fe450d38c00000000000000000000000000000000000000000000000000000000815260040161142a93929190611c01565b60405180910390fd5b8181036000808673ffffffffffffffffffffffffffffffffffffffff1673ffffffffffffffffffffffffffffffffffffffff16815260200190815260200160002081905550505b600073ffffffffffffffffffffffffffffffffffffffff168273ffffffffffffffffffffffffffffffffffffffff16036114c35780600260008282540392505081905550611510565b806000808473ffffffffffffffffffffffffffffffffffffffff1673ffffffffffffffffffffffffffffffffffffffff168152602001908152602001600020600082825401925050819055505b8173ffffffffffffffffffffffffffffffffffffffff168373ffffffffffffffffffffffffffffffffffffffff167fddf252ad1be2c89b69c2b068fc378daa952ba7f163c4a11628f55a4df523b3ef8360405161156d91906117de565b60405180910390a3505050565b6000604051905090565b600080fd5b600080fd5b60007fffffffff0000000000000000000000000000000000000000000000000000000082169050919050565b6115c38161158e565b81146115ce57600080fd5b50565b6000813590506115e0816115ba565b92915050565b6000602082840312156115fc576115fb611584565b5b600061160a848285016115d1565b91505092915050565b60008115159050919050565b61162881611613565b82525050565b6000602082019050611643600083018461161f565b92915050565b600081519050919050565b600082825260208201905092915050565b60005b83811015611683578082015181840152602081019050611668565b60008484015250505050565b6000601f19601f8301169050919050565b60006116ab82611649565b6116b58185611654565b93506116c5818560208601611665565b6116ce8161168f565b840191505092915050565b600060208201905081810360008301526116f381846116a0565b905092915050565b600073ffffffffffffffffffffffffffffffffffffffff82169050919050565b6000611726826116fb565b9050919050565b6117368161171b565b811461174157600080fd5b50565b6000813590506117538161172d565b92915050565b6000819050919050565b61176c81611759565b811461177757600080fd5b50565b60008135905061178981611763565b92915050565b600080604083850312156117a6576117a5611584565b5b60006117b485828601611744565b92505060206117c58582860161177a565b9150509250929050565b6117d881611759565b82525050565b60006020820190506117f360008301846117cf565b92915050565b60008060006060848603121561181257611811611584565b5b600061182086828701611744565b935050602061183186828701611744565b92505060406118428682870161177a565b9150509250925092565b600060ff82169050919050565b6118628161184c565b82525050565b600060208201905061187d6000830184611859565b92915050565b600080fd5b600080fd5b7f4e487b7100000000000000000000000000000000000000000000000000000000600052604160045260246000fd5b6118c58261168f565b810181811067ffffffffffffffff821117156118e4576118e361188d565b5b80604052505050565b60006118f761157a565b905061190382826118bc565b919050565b600067ffffffffffffffff8211156119235761192261188d565b5b61192c8261168f565b9050602081019050919050565b82818337600083830152505050565b600061195b61195684611908565b6118ed565b90508281526020810184848401111561197757611976611888565b5b611982848285611939565b509392505050565b600082601f83011261199f5761199e611883565b5b81356119af848260208601611948565b91505092915050565b6000806000606084860312156119d1576119d0611584565b5b60006119df86828701611744565b93505060206119f08682870161177a565b925050604084013567ffffffffffffffff811115611a1157611a10611589565b5b611a1d8682870161198a565b9150509250925092565b600060208284031215611a3d57611a3c611584565b5b6000611a4b84828501611744565b91505092915050565b611a5d8161171b565b82525050565b6000602082019050611a786000830184611a54565b92915050565b60008060008060808587031215611a9857611a97611584565b5b6000611aa687828801611744565b9450506020611ab787828801611744565b9350506040611ac88782880161177a565b925050606085013567ffffffffffffffff811115611ae957611ae8611589565b5b611af58782880161198a565b91505092959194509250565b60008060408385031215611b1857611b17611584565b5b6000611b2685828601611744565b9250506020611b3785828601611744565b9150509250929050565b7f4e487b7100000000000000000000000000000000000000000000000000000000600052602260045260246000fd5b60006002820490506001821680611b8857607f821691505b602082108103611b9b57611b9a611b41565b5b50919050565b6000604082019050611bb66000830185611a54565b611bc360208301846117cf565b9392505050565b6000606082019050611bdf6000830186611a54565b611bec6020830185611a54565b611bf960408301846117cf565b949350505050565b6000606082019050611c166000830186611a54565b611c2360208301856117cf565b611c3060408301846117cf565b949350505050565b600081519050919050565b600082825260208201905092915050565b6000611c5f82611c38565b611c698185611c43565b9350611c79818560208601611665565b611c828161168f565b840191505092915050565b6000608082019050611ca26000830187611a54565b611caf6020830186611a54565b611cbc60408301856117cf565b8181036060830152611cce8184611c54565b905095945050505050565b600081519050611ce8816115ba565b92915050565b600060208284031215611d0457611d03611584565b5b6000611d1284828501611cd9565b91505092915050565b6000606082019050611d306000830186611a54565b611d3d60208301856117cf565b8181036040830152611d4f8184611c54565b9050949350505050565b7f4e487b7100000000000000000000000000000000000000000000000000000000600052601160045260246000fd5b6000611d9382611759565b9150611d9e83611759565b9250828201905080821115611db657611db5611d59565b5b9291505056fea26469706673582212201a5ddf85687e3d848bbeeaf32ebb50a5530c8c4305c77184fe7e7bc8fdc4617264736f6c63430008180033",
  "linkReferences": {},
  "deployedLinkReferences": {}
}